{
  "contractName": "Database",
  "abi": [
    {
      "inputs": [
        {
          "internalType": "address",
          "name": "pubkey",
          "type": "address"
        }
      ],
      "name": "checkUserExists",
      "outputs": [
        {
          "internalType": "bool",
          "name": "",
          "type": "bool"
        }
      ],
      "stateMutability": "view",
      "type": "function"
    },
    {
      "inputs": [
        {
          "internalType": "string",
          "name": "name",
          "type": "string"
        }
      ],
      "name": "createAccount",
      "outputs": [],
      "stateMutability": "nonpayable",
      "type": "function"
    },
    {
      "inputs": [
        {
          "internalType": "address",
          "name": "pubkey",
          "type": "address"
        }
      ],
      "name": "getUsername",
      "outputs": [
        {
          "internalType": "string",
          "name": "",
          "type": "string"
        }
      ],
      "stateMutability": "view",
      "type": "function"
    },
    {
      "inputs": [
        {
          "internalType": "address",
          "name": "friend_key",
          "type": "address"
        },
        {
          "internalType": "string",
          "name": "name",
          "type": "string"
        }
      ],
      "name": "addFriend",
      "outputs": [],
      "stateMutability": "nonpayable",
      "type": "function"
    },
    {
      "inputs": [],
      "name": "getMyFriendList",
      "outputs": [
        {
          "components": [
            {
              "internalType": "address",
              "name": "pubkey",
              "type": "address"
            },
            {
              "internalType": "string",
              "name": "name",
              "type": "string"
            }
          ],
          "internalType": "struct Database.friend[]",
          "name": "",
          "type": "tuple[]"
        }
      ],
      "stateMutability": "view",
      "type": "function"
    },
    {
      "inputs": [
        {
          "internalType": "address",
          "name": "friend_key",
          "type": "address"
        },
        {
          "internalType": "string",
          "name": "_msg",
          "type": "string"
        }
      ],
      "name": "sendMessage",
      "outputs": [],
      "stateMutability": "nonpayable",
      "type": "function"
    },
    {
      "inputs": [
        {
          "internalType": "address",
          "name": "friend_key",
          "type": "address"
        }
      ],
      "name": "readMessage",
      "outputs": [
        {
          "components": [
            {
              "internalType": "address",
              "name": "sender",
              "type": "address"
            },
            {
              "internalType": "uint256",
              "name": "timestamp",
              "type": "uint256"
            },
            {
              "internalType": "string",
              "name": "msg",
              "type": "string"
            }
          ],
          "internalType": "struct Database.message[]",
          "name": "",
          "type": "tuple[]"
        }
      ],
      "stateMutability": "view",
      "type": "function"
    }
  ],
  "bytecode": "0x608060405234801561001057600080fd5b50611c80806100206000396000f3fe608060405234801561001057600080fd5b506004361061007d5760003560e01c80633b9f708d1161005b5780633b9f708d146100fe578063bd0f4d0d1461011a578063ce43c03214610138578063de6f24bb146101685761007d565b8063133f50f514610082578063255e9c11146100b2578063298daf5b146100e2575b600080fd5b61009c60048036038101906100979190610f1a565b610184565b6040516100a99190610f62565b60405180910390f35b6100cc60048036038101906100c79190610f1a565b6101dd565b6040516100d99190611147565b60405180910390f35b6100fc60048036038101906100f791906111ce565b610350565b005b6101186004803603810190610113919061121b565b610434565b005b6101226106a4565b60405161012f919061137a565b60405180910390f35b610152600480360381019061014d9190610f1a565b61082a565b60405161015f91906113e6565b60405180910390f35b610182600480360381019061017d919061121b565b610945565b005b6000806000808473ffffffffffffffffffffffffffffffffffffffff1673ffffffffffffffffffffffffffffffffffffffff16815260200190815260200160002060000180546101d390611437565b9050119050919050565b606060006101eb3384610b52565b905060016000828152602001908152602001600020805480602002602001604051908101604052809291908181526020016000905b8282101561034457838290600052602060002090600302016040518060600160405290816000820160009054906101000a900473ffffffffffffffffffffffffffffffffffffffff1673ffffffffffffffffffffffffffffffffffffffff1673ffffffffffffffffffffffffffffffffffffffff168152602001600182015481526020016002820180546102b390611437565b80601f01602080910402602001604051908101604052809291908181526020018280546102df90611437565b801561032c5780601f106103015761010080835404028352916020019161032c565b820191906000526020600020905b81548152906001019060200180831161030f57829003601f168201915b50505050508152505081526020019060010190610220565b50505050915050919050565b61035933610184565b15610399576040517f08c379a0000000000000000000000000000000000000000000000000000000008152600401610390906114b4565b60405180910390fd5b600082829050116103df576040517f08c379a00000000000000000000000000000000000000000000000000000000081526004016103d690611520565b60405180910390fd5b81816000803373ffffffffffffffffffffffffffffffffffffffff1673ffffffffffffffffffffffffffffffffffffffff168152602001908152602001600020600001918261042f929190611726565b505050565b61043d33610184565b61047c576040517f08c379a000000000000000000000000000000000000000000000000000000000815260040161047390611842565b60405180910390fd5b61048583610184565b6104c4576040517f08c379a00000000000000000000000000000000000000000000000000000000081526004016104bb906118ae565b60405180910390fd5b8273ffffffffffffffffffffffffffffffffffffffff163373ffffffffffffffffffffffffffffffffffffffff1603610532576040517f08c379a000000000000000000000000000000000000000000000000000000000815260040161052990611940565b60405180910390fd5b61053c3384610be7565b1561057c576040517f08c379a0000000000000000000000000000000000000000000000000000000008152600401610573906119ac565b60405180910390fd5b6105cb338484848080601f016020809104026020016040519081016040528093929190818152602001838380828437600081840152601f19601f82011690508083019250505050505050610db3565b61069f83336000803373ffffffffffffffffffffffffffffffffffffffff1673ffffffffffffffffffffffffffffffffffffffff168152602001908152602001600020600001805461061c90611437565b80601f016020809104026020016040519081016040528092919081815260200182805461064890611437565b80156106955780601f1061066a57610100808354040283529160200191610695565b820191906000526020600020905b81548152906001019060200180831161067857829003601f168201915b5050505050610db3565b505050565b60606000803373ffffffffffffffffffffffffffffffffffffffff1673ffffffffffffffffffffffffffffffffffffffff168152602001908152602001600020600101805480602002602001604051908101604052809291908181526020016000905b8282101561082157838290600052602060002090600202016040518060400160405290816000820160009054906101000a900473ffffffffffffffffffffffffffffffffffffffff1673ffffffffffffffffffffffffffffffffffffffff1673ffffffffffffffffffffffffffffffffffffffff16815260200160018201805461079090611437565b80601f01602080910402602001604051908101604052809291908181526020018280546107bc90611437565b80156108095780601f106107de57610100808354040283529160200191610809565b820191906000526020600020905b8154815290600101906020018083116107ec57829003601f168201915b50505050508152505081526020019060010190610707565b50505050905090565b606061083582610184565b610874576040517f08c379a000000000000000000000000000000000000000000000000000000000815260040161086b906118ae565b60405180910390fd5b6000808373ffffffffffffffffffffffffffffffffffffffff1673ffffffffffffffffffffffffffffffffffffffff16815260200190815260200160002060000180546108c090611437565b80601f01602080910402602001604051908101604052809291908181526020018280546108ec90611437565b80156109395780601f1061090e57610100808354040283529160200191610939565b820191906000526020600020905b81548152906001019060200180831161091c57829003601f168201915b50505050509050919050565b61094e33610184565b61098d576040517f08c379a000000000000000000000000000000000000000000000000000000000815260040161098490611842565b60405180910390fd5b61099683610184565b6109d5576040517f08c379a00000000000000000000000000000000000000000000000000000000081526004016109cc906118ae565b60405180910390fd5b6109df3384610be7565b610a1e576040517f08c379a0000000000000000000000000000000000000000000000000000000008152600401610a1590611a3e565b60405180910390fd5b6000610a2a3385610b52565b9050600060405180606001604052803373ffffffffffffffffffffffffffffffffffffffff16815260200142815260200185858080601f016020809104026020016040519081016040528093929190818152602001838380828437600081840152601f19601f8201169050808301925050505050505081525090506001600083815260200190815260200160002081908060018154018082558091505060019003906000526020600020906003020160009091909190915060008201518160000160006101000a81548173ffffffffffffffffffffffffffffffffffffffff021916908373ffffffffffffffffffffffffffffffffffffffff160217905550602082015181600101556040820151816002019081610b489190611a5e565b5050505050505050565b60008173ffffffffffffffffffffffffffffffffffffffff168373ffffffffffffffffffffffffffffffffffffffff1610610bb5578183604051602001610b9a929190611b78565b60405160208183030381529060405280519060200120610bdf565b8282604051602001610bc8929190611b78565b604051602081830303815290604052805190602001205b905092915050565b60008060008373ffffffffffffffffffffffffffffffffffffffff1673ffffffffffffffffffffffffffffffffffffffff168152602001908152602001600020600101805490506000808573ffffffffffffffffffffffffffffffffffffffff1673ffffffffffffffffffffffffffffffffffffffff168152602001908152602001600020600101805490501115610c86576000839050829350809250505b60005b6000808573ffffffffffffffffffffffffffffffffffffffff1673ffffffffffffffffffffffffffffffffffffffff16815260200190815260200160002060010180549050811015610da7578273ffffffffffffffffffffffffffffffffffffffff166000808673ffffffffffffffffffffffffffffffffffffffff1673ffffffffffffffffffffffffffffffffffffffff1681526020019081526020016000206001018281548110610d3f57610d3e611ba4565b5b906000526020600020906002020160000160009054906101000a900473ffffffffffffffffffffffffffffffffffffffff1673ffffffffffffffffffffffffffffffffffffffff1603610d96576001915050610dad565b80610da090611c02565b9050610c89565b50600090505b92915050565b600060405180604001604052808473ffffffffffffffffffffffffffffffffffffffff1681526020018381525090506000808573ffffffffffffffffffffffffffffffffffffffff1673ffffffffffffffffffffffffffffffffffffffff16815260200190815260200160002060010181908060018154018082558091505060019003906000526020600020906002020160009091909190915060008201518160000160006101000a81548173ffffffffffffffffffffffffffffffffffffffff021916908373ffffffffffffffffffffffffffffffffffffffff1602179055506020820151816001019081610ea99190611a5e565b50505050505050565b600080fd5b600080fd5b600073ffffffffffffffffffffffffffffffffffffffff82169050919050565b6000610ee782610ebc565b9050919050565b610ef781610edc565b8114610f0257600080fd5b50565b600081359050610f1481610eee565b92915050565b600060208284031215610f3057610f2f610eb2565b5b6000610f3e84828501610f05565b91505092915050565b60008115159050919050565b610f5c81610f47565b82525050565b6000602082019050610f776000830184610f53565b92915050565b600081519050919050565b600082825260208201905092915050565b6000819050602082019050919050565b610fb281610edc565b82525050565b6000819050919050565b610fcb81610fb8565b82525050565b600081519050919050565b600082825260208201905092915050565b60005b8381101561100b578082015181840152602081019050610ff0565b60008484015250505050565b6000601f19601f8301169050919050565b600061103382610fd1565b61103d8185610fdc565b935061104d818560208601610fed565b61105681611017565b840191505092915050565b60006060830160008301516110796000860182610fa9565b50602083015161108c6020860182610fc2565b50604083015184820360408601526110a48282611028565b9150508091505092915050565b60006110bd8383611061565b905092915050565b6000602082019050919050565b60006110dd82610f7d565b6110e78185610f88565b9350836020820285016110f985610f99565b8060005b85811015611135578484038952815161111685826110b1565b9450611121836110c5565b925060208a019950506001810190506110fd565b50829750879550505050505092915050565b6000602082019050818103600083015261116181846110d2565b905092915050565b600080fd5b600080fd5b600080fd5b60008083601f84011261118e5761118d611169565b5b8235905067ffffffffffffffff8111156111ab576111aa61116e565b5b6020830191508360018202830111156111c7576111c6611173565b5b9250929050565b600080602083850312156111e5576111e4610eb2565b5b600083013567ffffffffffffffff81111561120357611202610eb7565b5b61120f85828601611178565b92509250509250929050565b60008060006040848603121561123457611233610eb2565b5b600061124286828701610f05565b935050602084013567ffffffffffffffff81111561126357611262610eb7565b5b61126f86828701611178565b92509250509250925092565b600081519050919050565b600082825260208201905092915050565b6000819050602082019050919050565b60006040830160008301516112bf6000860182610fa9565b50602083015184820360208601526112d78282611028565b9150508091505092915050565b60006112f083836112a7565b905092915050565b6000602082019050919050565b60006113108261127b565b61131a8185611286565b93508360208202850161132c85611297565b8060005b85811015611368578484038952815161134985826112e4565b9450611354836112f8565b925060208a01995050600181019050611330565b50829750879550505050505092915050565b600060208201905081810360008301526113948184611305565b905092915050565b600082825260208201905092915050565b60006113b882610fd1565b6113c2818561139c565b93506113d2818560208601610fed565b6113db81611017565b840191505092915050565b6000602082019050818103600083015261140081846113ad565b905092915050565b7f4e487b7100000000000000000000000000000000000000000000000000000000600052602260045260246000fd5b6000600282049050600182168061144f57607f821691505b60208210810361146257611461611408565b5b50919050565b7f5573657220616c72656164792065786973747321000000000000000000000000600082015250565b600061149e60148361139c565b91506114a982611468565b602082019050919050565b600060208201905081810360008301526114cd81611491565b9050919050565b7f557365726e616d652063616e6e6f7420626520656d7074792100000000000000600082015250565b600061150a60198361139c565b9150611515826114d4565b602082019050919050565b60006020820190508181036000830152611539816114fd565b9050919050565b600082905092915050565b7f4e487b7100000000000000000000000000000000000000000000000000000000600052604160045260246000fd5b60008190508160005260206000209050919050565b60006020601f8301049050919050565b600082821b905092915050565b6000600883026115dc7fffffffffffffffffffffffffffffffffffffffffffffffffffffffffffffffff8261159f565b6115e6868361159f565b95508019841693508086168417925050509392505050565b6000819050919050565b600061162361161e61161984610fb8565b6115fe565b610fb8565b9050919050565b6000819050919050565b61163d83611608565b6116516116498261162a565b8484546115ac565b825550505050565b600090565b611666611659565b611671818484611634565b505050565b5b818110156116955761168a60008261165e565b600181019050611677565b5050565b601f8211156116da576116ab8161157a565b6116b48461158f565b810160208510156116c3578190505b6116d76116cf8561158f565b830182611676565b50505b505050565b600082821c905092915050565b60006116fd600019846008026116df565b1980831691505092915050565b600061171683836116ec565b9150826002028217905092915050565b6117308383611540565b67ffffffffffffffff8111156117495761174861154b565b5b6117538254611437565b61175e828285611699565b6000601f83116001811461178d576000841561177b578287013590505b611785858261170a565b8655506117ed565b601f19841661179b8661157a565b60005b828110156117c35784890135825560018201915060208501945060208101905061179e565b868310156117e057848901356117dc601f8916826116ec565b8355505b6001600288020188555050505b50505050505050565b7f43726561746520616e206163636f756e74206669727374210000000000000000600082015250565b600061182c60188361139c565b9150611837826117f6565b602082019050919050565b6000602082019050818103600083015261185b8161181f565b9050919050565b7f55736572206973206e6f74207265676973746572656421000000000000000000600082015250565b600061189860178361139c565b91506118a382611862565b602082019050919050565b600060208201905081810360008301526118c78161188b565b9050919050565b7f55736572732063616e6e6f7420616464207468656d73656c766573206173206660008201527f7269656e64732100000000000000000000000000000000000000000000000000602082015250565b600061192a60278361139c565b9150611935826118ce565b604082019050919050565b600060208201905081810360008301526119598161191d565b9050919050565b7f54686573652075736572732061726520616c726561647920667269656e647321600082015250565b600061199660208361139c565b91506119a182611960565b602082019050919050565b600060208201905081810360008301526119c581611989565b9050919050565b7f596f7520617265206e6f7420667269656e64732077697468207468652067697660008201527f656e207573657200000000000000000000000000000000000000000000000000602082015250565b6000611a2860278361139c565b9150611a33826119cc565b604082019050919050565b60006020820190508181036000830152611a5781611a1b565b9050919050565b611a6782610fd1565b67ffffffffffffffff811115611a8057611a7f61154b565b5b611a8a8254611437565b611a95828285611699565b600060209050601f831160018114611ac85760008415611ab6578287015190505b611ac0858261170a565b865550611b28565b601f198416611ad68661157a565b60005b82811015611afe57848901518255600182019150602085019450602081019050611ad9565b86831015611b1b5784890151611b17601f8916826116ec565b8355505b6001600288020188555050505b505050505050565b60008160601b9050919050565b6000611b4882611b30565b9050919050565b6000611b5a82611b3d565b9050919050565b611b72611b6d82610edc565b611b4f565b82525050565b6000611b848285611b61565b601482019150611b948284611b61565b6014820191508190509392505050565b7f4e487b7100000000000000000000000000000000000000000000000000000000600052603260045260246000fd5b7f4e487b7100000000000000000000000000000000000000000000000000000000600052601160045260246000fd5b6000611c0d82610fb8565b91507fffffffffffffffffffffffffffffffffffffffffffffffffffffffffffffffff8203611c3f57611c3e611bd3565b5b60018201905091905056fea264697066735822122092ee90bbf396897660e47fdc009117cfbd0f9b3e856ce4c0c8aece1a8f7b4c9e64736f6c63430008130033",
  "immutableReferences": {},
  "source": "// SPDX-License-Identifier: GPL-3.0\n\npragma solidity 0.8.19;\ncontract Database {\n    // Stores the default name of a user and her friends info\n    struct user {\n        string name;\n        friend[] friendList;\n    }\n\n    // Each friend is identified by its address and name assigned by the second party\n    struct friend {\n        address pubkey;\n        string name;\n    }\n\n    // message construct stores the single chat message and its metadata\n    struct message {\n        address sender;\n        uint256 timestamp;\n        string msg;\n    }\n\n    // Collection of users registered on the application\n    mapping(address => user) private userList;  // Changed to private for security\n    // Collection of messages communicated in a channel between two users\n    mapping(bytes32 => message[]) private allMessages; // key: Hash(user1,user2)\n\n    // It checks whether a user(identified by its public key)\n    // has created an account on this application or not\n    function checkUserExists(address pubkey) public view returns(bool) {\n        return bytes(userList[pubkey].name).length > 0;\n    }\n\n    // Registers the caller(msg.sender) to our app with a non-empty username\n    function createAccount(string calldata name) external {\n        require(!checkUserExists(msg.sender), \"User already exists!\");\n        require(bytes(name).length > 0, \"Username cannot be empty!\");\n        userList[msg.sender].name = name;\n    }\n\n    // Returns the default name provided by a user\n    function getUsername(address pubkey) external view returns(string memory) {\n        require(checkUserExists(pubkey), \"User is not registered!\");\n        return userList[pubkey].name;\n    }\n\n    // Adds new user as your friend with an associated nickname\n    function addFriend(address friend_key, string calldata name) external {\n        require(checkUserExists(msg.sender), \"Create an account first!\");\n        require(checkUserExists(friend_key), \"User is not registered!\");\n        require(msg.sender != friend_key, \"Users cannot add themselves as friends!\");\n        require(!checkAlreadyFriends(msg.sender, friend_key), \"These users are already friends!\");\n\n        _addFriend(msg.sender, friend_key, name);\n        _addFriend(friend_key, msg.sender, userList[msg.sender].name);\n    }\n\n    // Checks if two users are already friends or not\n    function checkAlreadyFriends(address pubkey1, address pubkey2) internal view returns(bool) {\n        if (userList[pubkey1].friendList.length > userList[pubkey2].friendList.length) {\n            address tmp = pubkey1;\n            pubkey1 = pubkey2;\n            pubkey2 = tmp;\n        }\n\n        for (uint i = 0; i < userList[pubkey1].friendList.length; ++i) {\n            if (userList[pubkey1].friendList[i].pubkey == pubkey2)\n                return true;\n        }\n        return false;\n    }\n\n    // A helper function to update the friendList\n    function _addFriend(address me, address friend_key, string memory name) internal {\n        friend memory newFriend = friend(friend_key, name);\n        userList[me].friendList.push(newFriend);\n    }\n\n    // Returns list of friends of the sender\n    function getMyFriendList() external view returns(friend[] memory) {\n        return userList[msg.sender].friendList;\n    }\n\n    // Returns a unique code for the channel created between the two users\n    // Hash(key1,key2) where key1 is lexicographically smaller than key2\n    function _getChatCode(address pubkey1, address pubkey2) internal pure returns(bytes32) {\n        return pubkey1 < pubkey2\n            ? keccak256(abi.encodePacked(pubkey1, pubkey2))\n            : keccak256(abi.encodePacked(pubkey2, pubkey1));\n    }\n\n    // Sends a new message to a given friend\n    function sendMessage(address friend_key, string calldata _msg) external {\n        require(checkUserExists(msg.sender), \"Create an account first!\");\n        require(checkUserExists(friend_key), \"User is not registered!\");\n        require(checkAlreadyFriends(msg.sender, friend_key), \"You are not friends with the given user\");\n\n        bytes32 chatCode = _getChatCode(msg.sender, friend_key);\n        message memory newMsg = message(msg.sender, block.timestamp, _msg);\n        allMessages[chatCode].push(newMsg);\n    }\n\n    // Returns all the chat messages communicated in a channel\n    function readMessage(address friend_key) external view returns(message[] memory) {\n        bytes32 chatCode = _getChatCode(msg.sender, friend_key);\n        return allMessages[chatCode];\n    }\n}\n",
  "sourcePath": "C:\\Users\\narth\\Downloads\\chat-dapp-main\\avax-chat-dapp-main\\contracts\\Database.sol",
  "compiler": {
    "name": "solc",
    "version": "0.8.19+commit.7dd6d404.Emscripten.clang"
  },
  "schemaVersion": "3.4.16",
  "updatedAt": "2024-10-25T06:12:29.330Z",
  "devdoc": {
    "kind": "dev",
    "methods": {},
    "version": 1
  },
  "userdoc": {
    "kind": "user",
    "methods": {},
    "version": 1
  }
}